{
  "address": "0xD199fDC305eeE50dEd541E9726Fe3CAB9D4A69E0",
  "abi": [
    {
      "anonymous": false,
      "inputs": [
        {
          "indexed": true,
          "internalType": "address",
          "name": "maker",
          "type": "address"
        },
        {
          "indexed": false,
          "internalType": "uint256",
          "name": "_project",
          "type": "uint256"
        }
      ],
      "name": "AddProject",
      "type": "event"
    },
    {
      "anonymous": false,
      "inputs": [
        {
          "indexed": true,
          "internalType": "address",
          "name": "funder",
          "type": "address"
        },
        {
          "indexed": true,
          "internalType": "address",
          "name": "maker",
          "type": "address"
        },
        {
          "indexed": false,
          "internalType": "uint256",
          "name": "_project",
          "type": "uint256"
        },
        {
          "indexed": false,
          "internalType": "uint256",
          "name": "amount",
          "type": "uint256"
        },
        {
          "indexed": false,
          "internalType": "address",
          "name": "erc20ContractAddress",
          "type": "address"
        }
      ],
      "name": "FundedProject",
      "type": "event"
    },
    {
      "inputs": [],
      "name": "add_project",
      "outputs": [],
      "stateMutability": "nonpayable",
      "type": "function"
    },
    {
      "inputs": [
        {
          "internalType": "uint256",
          "name": "Project",
          "type": "uint256"
        },
        {
          "internalType": "contract IERC20",
          "name": "erc20",
          "type": "address"
        },
        {
          "internalType": "uint256",
          "name": "amount",
          "type": "uint256"
        }
      ],
      "name": "give_funding",
      "outputs": [
        {
          "internalType": "bool",
          "name": "",
          "type": "bool"
        }
      ],
      "stateMutability": "payable",
      "type": "function"
    },
    {
      "inputs": [],
      "name": "project_ID",
      "outputs": [
        {
          "internalType": "uint256",
          "name": "",
          "type": "uint256"
        }
      ],
      "stateMutability": "view",
      "type": "function"
    },
    {
      "inputs": [
        {
          "internalType": "uint256",
          "name": "",
          "type": "uint256"
        }
      ],
      "name": "project_active",
      "outputs": [
        {
          "internalType": "address",
          "name": "",
          "type": "address"
        }
      ],
      "stateMutability": "view",
      "type": "function"
    },
    {
      "inputs": [
        {
          "internalType": "uint256",
          "name": "",
          "type": "uint256"
        }
      ],
      "name": "project_funded",
      "outputs": [
        {
          "internalType": "address",
          "name": "",
          "type": "address"
        }
      ],
      "stateMutability": "view",
      "type": "function"
    }
  ],
  "transactionHash": "0xd07f457199f5f44db5441a1308d755ad5a0456ea82b195adfff2f0934f83d0cc",
  "args": [],
  "numDeployments": 1,
  "solcInputHash": "e26e7ee75b1455e3af687bebac381c84",
  "bytecode": "0x6080604052600060025534801561001557600080fd5b50610760806100256000396000f3fe60806040526004361061004a5760003560e01c80631875f6cc1461004f5780631fb0faf614610066578063244eb8a614610096578063a4e19640146100d3578063fb731fc6146100fe575b600080fd5b34801561005b57600080fd5b5061006461013b565b005b610080600480360381019061007b91906104cf565b6101f8565b60405161008d91906105a1565b60405180910390f35b3480156100a257600080fd5b506100bd60048036038101906100b891906104a2565b6103ca565b6040516100ca919061054f565b60405180910390f35b3480156100df57600080fd5b506100e86103fd565b6040516100f591906105bc565b60405180910390f35b34801561010a57600080fd5b50610125600480360381019061012091906104a2565b610403565b604051610132919061054f565b60405180910390f35b33600080600254815260200190815260200160002060006101000a81548173ffffffffffffffffffffffffffffffffffffffff021916908373ffffffffffffffffffffffffffffffffffffffff1602179055503373ffffffffffffffffffffffffffffffffffffffff167f4a31f5ac372495eeadf90f1b0d3a4693dbb858e9f2e9730987f6d93338dc06ac6002546040516101d691906105bc565b60405180910390a2600260008154809291906101f190610668565b9190505550565b60008060008086815260200190815260200160002060009054906101000a900473ffffffffffffffffffffffffffffffffffffffff16905060008473ffffffffffffffffffffffffffffffffffffffff166323b872dd3384876040518463ffffffff1660e01b815260040161026f9392919061056a565b602060405180830381600087803b15801561028957600080fd5b505af115801561029d573d6000803e3d6000fd5b505050506040513d601f19601f820116820180604052508101906102c19190610475565b9050806102cd57600080fd5b60008087815260200190815260200160002060006101000a81549073ffffffffffffffffffffffffffffffffffffffff0219169055816001600088815260200190815260200160002060006101000a81548173ffffffffffffffffffffffffffffffffffffffff021916908373ffffffffffffffffffffffffffffffffffffffff1602179055508173ffffffffffffffffffffffffffffffffffffffff163373ffffffffffffffffffffffffffffffffffffffff167f53451cfbb436de74f546931b9936b4022239e00a7d009929b84b15a057fa0a3f8887896040516103b5939291906105d7565b60405180910390a36001925050509392505050565b60016020528060005260406000206000915054906101000a900473ffffffffffffffffffffffffffffffffffffffff1681565b60025481565b60006020528060005260406000206000915054906101000a900473ffffffffffffffffffffffffffffffffffffffff1681565b600081519050610445816106e5565b92915050565b60008135905061045a816106fc565b92915050565b60008135905061046f81610713565b92915050565b60006020828403121561048b5761048a6106e0565b5b600061049984828501610436565b91505092915050565b6000602082840312156104b8576104b76106e0565b5b60006104c684828501610460565b91505092915050565b6000806000606084860312156104e8576104e76106e0565b5b60006104f686828701610460565b93505060206105078682870161044b565b925050604061051886828701610460565b9150509250925092565b61052b8161060e565b82525050565b61053a81610620565b82525050565b6105498161065e565b82525050565b60006020820190506105646000830184610522565b92915050565b600060608201905061057f6000830186610522565b61058c6020830185610522565b6105996040830184610540565b949350505050565b60006020820190506105b66000830184610531565b92915050565b60006020820190506105d16000830184610540565b92915050565b60006060820190506105ec6000830186610540565b6105f96020830185610540565b6106066040830184610522565b949350505050565b60006106198261063e565b9050919050565b60008115159050919050565b60006106378261060e565b9050919050565b600073ffffffffffffffffffffffffffffffffffffffff82169050919050565b6000819050919050565b60006106738261065e565b91507fffffffffffffffffffffffffffffffffffffffffffffffffffffffffffffffff8214156106a6576106a56106b1565b5b600182019050919050565b7f4e487b7100000000000000000000000000000000000000000000000000000000600052601160045260246000fd5b600080fd5b6106ee81610620565b81146106f957600080fd5b50565b6107058161062c565b811461071057600080fd5b50565b61071c8161065e565b811461072757600080fd5b5056fea26469706673582212201f4578567103d0c7173f56dd1dd7717847c72238cad2a0f90996fad2e251b7f064736f6c63430008070033",
  "devdoc": {
    "kind": "dev",
    "methods": {},
    "version": 1
  },
  "userdoc": {
    "kind": "user",
    "methods": {},
    "version": 1
  },
  "storageLayout": {
    "storage": [
      {
        "astId": 84,
        "contract": "contracts/DeFund.sol:DeFund",
        "label": "project_active",
        "offset": 0,
        "slot": "0",
        "type": "t_mapping(t_uint256,t_address)"
      },
      {
        "astId": 88,
        "contract": "contracts/DeFund.sol:DeFund",
        "label": "project_funded",
        "offset": 0,
        "slot": "1",
        "type": "t_mapping(t_uint256,t_address)"
      },
      {
        "astId": 91,
        "contract": "contracts/DeFund.sol:DeFund",
        "label": "project_ID",
        "offset": 0,
        "slot": "2",
        "type": "t_uint256"
      }
    ],
    "types": {
      "t_address": {
        "encoding": "inplace",
        "label": "address",
        "numberOfBytes": "20"
      },
      "t_mapping(t_uint256,t_address)": {
        "encoding": "mapping",
        "key": "t_uint256",
        "label": "mapping(uint256 => address)",
        "numberOfBytes": "32",
        "value": "t_address"
      },
      "t_uint256": {
        "encoding": "inplace",
        "label": "uint256",
        "numberOfBytes": "32"
      }
    }
  }
}