{
  "_format": "hh-sol-artifact-1",
  "contractName": "DeFund",
  "sourceName": "contracts/DeFund.sol",
  "abi": [
    {
      "anonymous": false,
      "inputs": [
        {
          "indexed": true,
          "internalType": "address",
          "name": "maker",
          "type": "address"
        },
        {
          "indexed": false,
          "internalType": "uint256",
          "name": "project",
          "type": "uint256"
        },
        {
          "indexed": false,
          "internalType": "string",
          "name": "youtube",
          "type": "string"
        },
        {
          "indexed": false,
          "internalType": "string",
          "name": "github",
          "type": "string"
        },
        {
          "indexed": false,
          "internalType": "string",
          "name": "name",
          "type": "string"
        },
        {
          "indexed": false,
          "internalType": "string",
          "name": "description",
          "type": "string"
        },
        {
          "indexed": false,
          "internalType": "uint256",
          "name": "amount",
          "type": "uint256"
        }
      ],
      "name": "AddProject",
      "type": "event"
    },
    {
      "anonymous": false,
      "inputs": [
        {
          "indexed": true,
          "internalType": "address",
          "name": "funder",
          "type": "address"
        },
        {
          "indexed": true,
          "internalType": "address",
          "name": "maker",
          "type": "address"
        },
        {
          "indexed": false,
          "internalType": "uint256",
          "name": "project",
          "type": "uint256"
        },
        {
          "indexed": false,
          "internalType": "uint256",
          "name": "amount",
          "type": "uint256"
        }
      ],
      "name": "FundedProject",
      "type": "event"
    },
    {
      "inputs": [
        {
          "internalType": "string",
          "name": "youtube",
          "type": "string"
        },
        {
          "internalType": "string",
          "name": "github",
          "type": "string"
        },
        {
          "internalType": "string",
          "name": "description",
          "type": "string"
        },
        {
          "internalType": "string",
          "name": "name",
          "type": "string"
        },
        {
          "internalType": "uint256",
          "name": "amount",
          "type": "uint256"
        }
      ],
      "name": "add_project",
      "outputs": [],
      "stateMutability": "nonpayable",
      "type": "function"
    },
    {
      "inputs": [
        {
          "internalType": "uint256",
          "name": "project_id",
          "type": "uint256"
        }
      ],
      "name": "getactiveproject",
      "outputs": [
        {
          "internalType": "address",
          "name": "",
          "type": "address"
        }
      ],
      "stateMutability": "view",
      "type": "function"
    },
    {
      "inputs": [
        {
          "internalType": "uint256",
          "name": "project_id",
          "type": "uint256"
        }
      ],
      "name": "getfundedproject",
      "outputs": [
        {
          "internalType": "address",
          "name": "",
          "type": "address"
        }
      ],
      "stateMutability": "view",
      "type": "function"
    },
    {
      "inputs": [
        {
          "internalType": "uint256",
          "name": "Project",
          "type": "uint256"
        },
        {
          "internalType": "address",
          "name": "erc20",
          "type": "address"
        },
        {
          "internalType": "uint256",
          "name": "amount",
          "type": "uint256"
        }
      ],
      "name": "give_funding",
      "outputs": [
        {
          "internalType": "bool",
          "name": "",
          "type": "bool"
        }
      ],
      "stateMutability": "payable",
      "type": "function"
    },
    {
      "inputs": [],
      "name": "project_ID",
      "outputs": [
        {
          "internalType": "uint256",
          "name": "",
          "type": "uint256"
        }
      ],
      "stateMutability": "view",
      "type": "function"
    },
    {
      "inputs": [
        {
          "internalType": "uint256",
          "name": "",
          "type": "uint256"
        }
      ],
      "name": "project_active",
      "outputs": [
        {
          "internalType": "address",
          "name": "",
          "type": "address"
        }
      ],
      "stateMutability": "view",
      "type": "function"
    },
    {
      "inputs": [
        {
          "internalType": "uint256",
          "name": "",
          "type": "uint256"
        }
      ],
      "name": "project_funded",
      "outputs": [
        {
          "internalType": "address",
          "name": "",
          "type": "address"
        }
      ],
      "stateMutability": "view",
      "type": "function"
    }
  ],
  "bytecode": "0x6080604052600060025534801561001557600080fd5b50610bbc806100256000396000f3fe60806040526004361061006f5760003560e01c8063244eb8a61161004e578063244eb8a61461010a57806385ec9b1914610147578063a4e1964014610184578063fb731fc6146101af5761006f565b806210527d146100745780630d39483f1461009d5780631fb0faf6146100da575b600080fd5b34801561008057600080fd5b5061009b60048036038101906100969190610649565b6101ec565b005b3480156100a957600080fd5b506100c460048036038101906100bf9190610734565b6102b8565b6040516100d1919061081a565b60405180910390f35b6100f460048036038101906100ef9190610761565b6102f4565b604051610101919061086c565b60405180910390f35b34801561011657600080fd5b50610131600480360381019061012c9190610734565b6104c4565b60405161013e919061081a565b60405180910390f35b34801561015357600080fd5b5061016e60048036038101906101699190610734565b6104f7565b60405161017b919061081a565b60405180910390f35b34801561019057600080fd5b50610199610534565b6040516101a69190610887565b60405180910390f35b3480156101bb57600080fd5b506101d660048036038101906101d19190610734565b61053a565b6040516101e3919061081a565b60405180910390f35b33600080600254815260200190815260200160002060006101000a81548173ffffffffffffffffffffffffffffffffffffffff021916908373ffffffffffffffffffffffffffffffffffffffff1602179055503373ffffffffffffffffffffffffffffffffffffffff167f99f884100bd9ca6f04c1a15e8aa20a2f60b5c79e8bb3d45da134656b5367c8356002548787868887604051610291969594939291906108a2565b60405180910390a2600260008154809291906102ac90610a75565b91905055505050505050565b600080600083815260200190815260200160002060009054906101000a900473ffffffffffffffffffffffffffffffffffffffff169050919050565b60008060008086815260200190815260200160002060009054906101000a900473ffffffffffffffffffffffffffffffffffffffff16905060008473ffffffffffffffffffffffffffffffffffffffff166323b872dd3384876040518463ffffffff1660e01b815260040161036b93929190610835565b602060405180830381600087803b15801561038557600080fd5b505af1158015610399573d6000803e3d6000fd5b505050506040513d601f19601f820116820180604052508101906103bd919061061c565b9050806103c957600080fd5b60008087815260200190815260200160002060006101000a81549073ffffffffffffffffffffffffffffffffffffffff0219169055816001600088815260200190815260200160002060006101000a81548173ffffffffffffffffffffffffffffffffffffffff021916908373ffffffffffffffffffffffffffffffffffffffff1602179055508173ffffffffffffffffffffffffffffffffffffffff163373ffffffffffffffffffffffffffffffffffffffff167f0b1713f792f525d6722355af366f4041b4d15ab00075ec1c7992a2299f24e84788876040516104af92919061091f565b60405180910390a36001925050509392505050565b60016020528060005260406000206000915054906101000a900473ffffffffffffffffffffffffffffffffffffffff1681565b60006001600083815260200190815260200160002060009054906101000a900473ffffffffffffffffffffffffffffffffffffffff169050919050565b60025481565b60006020528060005260406000206000915054906101000a900473ffffffffffffffffffffffffffffffffffffffff1681565b600061058061057b8461096d565b610948565b90508281526020810184848401111561059c5761059b610b21565b5b6105a7848285610a02565b509392505050565b6000813590506105be81610b41565b92915050565b6000815190506105d381610b58565b92915050565b600082601f8301126105ee576105ed610b1c565b5b81356105fe84826020860161056d565b91505092915050565b60008135905061061681610b6f565b92915050565b60006020828403121561063257610631610b2b565b5b6000610640848285016105c4565b91505092915050565b600080600080600060a0868803121561066557610664610b2b565b5b600086013567ffffffffffffffff81111561068357610682610b26565b5b61068f888289016105d9565b955050602086013567ffffffffffffffff8111156106b0576106af610b26565b5b6106bc888289016105d9565b945050604086013567ffffffffffffffff8111156106dd576106dc610b26565b5b6106e9888289016105d9565b935050606086013567ffffffffffffffff81111561070a57610709610b26565b5b610716888289016105d9565b925050608061072788828901610607565b9150509295509295909350565b60006020828403121561074a57610749610b2b565b5b600061075884828501610607565b91505092915050565b60008060006060848603121561077a57610779610b2b565b5b600061078886828701610607565b9350506020610799868287016105af565b92505060406107aa86828701610607565b9150509250925092565b6107bd816109ba565b82525050565b6107cc816109cc565b82525050565b60006107dd8261099e565b6107e781856109a9565b93506107f7818560208601610a11565b61080081610b30565b840191505092915050565b610814816109f8565b82525050565b600060208201905061082f60008301846107b4565b92915050565b600060608201905061084a60008301866107b4565b61085760208301856107b4565b610864604083018461080b565b949350505050565b600060208201905061088160008301846107c3565b92915050565b600060208201905061089c600083018461080b565b92915050565b600060c0820190506108b7600083018961080b565b81810360208301526108c981886107d2565b905081810360408301526108dd81876107d2565b905081810360608301526108f181866107d2565b9050818103608083015261090581856107d2565b905061091460a083018461080b565b979650505050505050565b6000604082019050610934600083018561080b565b610941602083018461080b565b9392505050565b6000610952610963565b905061095e8282610a44565b919050565b6000604051905090565b600067ffffffffffffffff82111561098857610987610aed565b5b61099182610b30565b9050602081019050919050565b600081519050919050565b600082825260208201905092915050565b60006109c5826109d8565b9050919050565b60008115159050919050565b600073ffffffffffffffffffffffffffffffffffffffff82169050919050565b6000819050919050565b82818337600083830152505050565b60005b83811015610a2f578082015181840152602081019050610a14565b83811115610a3e576000848401525b50505050565b610a4d82610b30565b810181811067ffffffffffffffff82111715610a6c57610a6b610aed565b5b80604052505050565b6000610a80826109f8565b91507fffffffffffffffffffffffffffffffffffffffffffffffffffffffffffffffff821415610ab357610ab2610abe565b5b600182019050919050565b7f4e487b7100000000000000000000000000000000000000000000000000000000600052601160045260246000fd5b7f4e487b7100000000000000000000000000000000000000000000000000000000600052604160045260246000fd5b600080fd5b600080fd5b600080fd5b600080fd5b6000601f19601f8301169050919050565b610b4a816109ba565b8114610b5557600080fd5b50565b610b61816109cc565b8114610b6c57600080fd5b50565b610b78816109f8565b8114610b8357600080fd5b5056fea26469706673582212209fe7c10ba837e08c94e79fedd62c2450e6a5be92cd141fb0df3127faa513e1d564736f6c63430008070033",
  "linkReferences": {},
  "deployedLinkReferences": {}
}