{
  "_format": "hh-sol-artifact-1",
  "contractName": "DeFund",
  "sourceName": "contracts/DeFund.sol",
  "abi": [
    {
      "anonymous": false,
      "inputs": [
        {
          "indexed": true,
          "internalType": "address",
          "name": "maker",
          "type": "address"
        },
        {
          "indexed": false,
          "internalType": "uint256",
          "name": "_project",
          "type": "uint256"
        }
      ],
      "name": "AddProject",
      "type": "event"
    },
    {
      "anonymous": false,
      "inputs": [
        {
          "indexed": true,
          "internalType": "address",
          "name": "funder",
          "type": "address"
        },
        {
          "indexed": true,
          "internalType": "address",
          "name": "maker",
          "type": "address"
        },
        {
          "indexed": false,
          "internalType": "uint256",
          "name": "_project",
          "type": "uint256"
        },
        {
          "indexed": false,
          "internalType": "uint256",
          "name": "amount",
          "type": "uint256"
        },
        {
          "indexed": false,
          "internalType": "address",
          "name": "erc20ContractAddress",
          "type": "address"
        }
      ],
      "name": "FundedProject",
      "type": "event"
    },
    {
      "inputs": [],
      "name": "add_project",
      "outputs": [],
      "stateMutability": "nonpayable",
      "type": "function"
    },
    {
      "inputs": [
        {
          "internalType": "uint256",
          "name": "project_id",
          "type": "uint256"
        }
      ],
      "name": "getactiveproject",
      "outputs": [
        {
          "internalType": "address",
          "name": "",
          "type": "address"
        }
      ],
      "stateMutability": "view",
      "type": "function"
    },
    {
      "inputs": [
        {
          "internalType": "uint256",
          "name": "project_id",
          "type": "uint256"
        }
      ],
      "name": "getfundedproject",
      "outputs": [
        {
          "internalType": "address",
          "name": "",
          "type": "address"
        }
      ],
      "stateMutability": "view",
      "type": "function"
    },
    {
      "inputs": [
        {
          "internalType": "uint256",
          "name": "Project",
          "type": "uint256"
        },
        {
          "internalType": "address",
          "name": "erc20",
          "type": "address"
        },
        {
          "internalType": "uint256",
          "name": "amount",
          "type": "uint256"
        }
      ],
      "name": "give_funding",
      "outputs": [
        {
          "internalType": "bool",
          "name": "",
          "type": "bool"
        }
      ],
      "stateMutability": "payable",
      "type": "function"
    },
    {
      "inputs": [],
      "name": "project_ID",
      "outputs": [
        {
          "internalType": "uint256",
          "name": "",
          "type": "uint256"
        }
      ],
      "stateMutability": "view",
      "type": "function"
    },
    {
      "inputs": [
        {
          "internalType": "uint256",
          "name": "",
          "type": "uint256"
        }
      ],
      "name": "project_active",
      "outputs": [
        {
          "internalType": "address",
          "name": "",
          "type": "address"
        }
      ],
      "stateMutability": "view",
      "type": "function"
    },
    {
      "inputs": [
        {
          "internalType": "uint256",
          "name": "",
          "type": "uint256"
        }
      ],
      "name": "project_funded",
      "outputs": [
        {
          "internalType": "address",
          "name": "",
          "type": "address"
        }
      ],
      "stateMutability": "view",
      "type": "function"
    }
  ],
  "bytecode": "0x6080604052600060025534801561001557600080fd5b50610867806100256000396000f3fe6080604052600436106100705760003560e01c8063244eb8a61161004e578063244eb8a6146100f957806385ec9b1914610136578063a4e1964014610173578063fb731fc61461019e57610070565b80630d39483f146100755780631875f6cc146100b25780631fb0faf6146100c9575b600080fd5b34801561008157600080fd5b5061009c600480360381019061009791906105bb565b6101db565b6040516100a99190610668565b60405180910390f35b3480156100be57600080fd5b506100c7610217565b005b6100e360048036038101906100de91906105e8565b6102d4565b6040516100f091906106ba565b60405180910390f35b34801561010557600080fd5b50610120600480360381019061011b91906105bb565b6104a6565b60405161012d9190610668565b60405180910390f35b34801561014257600080fd5b5061015d600480360381019061015891906105bb565b6104d9565b60405161016a9190610668565b60405180910390f35b34801561017f57600080fd5b50610188610516565b60405161019591906106d5565b60405180910390f35b3480156101aa57600080fd5b506101c560048036038101906101c091906105bb565b61051c565b6040516101d29190610668565b60405180910390f35b600080600083815260200190815260200160002060009054906101000a900473ffffffffffffffffffffffffffffffffffffffff169050919050565b33600080600254815260200190815260200160002060006101000a81548173ffffffffffffffffffffffffffffffffffffffff021916908373ffffffffffffffffffffffffffffffffffffffff1602179055503373ffffffffffffffffffffffffffffffffffffffff167f4a31f5ac372495eeadf90f1b0d3a4693dbb858e9f2e9730987f6d93338dc06ac6002546040516102b291906106d5565b60405180910390a2600260008154809291906102cd9061076f565b9190505550565b60008060008086815260200190815260200160002060009054906101000a900473ffffffffffffffffffffffffffffffffffffffff16905060008473ffffffffffffffffffffffffffffffffffffffff166323b872dd3384876040518463ffffffff1660e01b815260040161034b93929190610683565b602060405180830381600087803b15801561036557600080fd5b505af1158015610379573d6000803e3d6000fd5b505050506040513d601f19601f8201168201806040525081019061039d919061058e565b9050806103a957600080fd5b60008087815260200190815260200160002060006101000a81549073ffffffffffffffffffffffffffffffffffffffff0219169055816001600088815260200190815260200160002060006101000a81548173ffffffffffffffffffffffffffffffffffffffff021916908373ffffffffffffffffffffffffffffffffffffffff1602179055508173ffffffffffffffffffffffffffffffffffffffff163373ffffffffffffffffffffffffffffffffffffffff167f53451cfbb436de74f546931b9936b4022239e00a7d009929b84b15a057fa0a3f888789604051610491939291906106f0565b60405180910390a36001925050509392505050565b60016020528060005260406000206000915054906101000a900473ffffffffffffffffffffffffffffffffffffffff1681565b60006001600083815260200190815260200160002060009054906101000a900473ffffffffffffffffffffffffffffffffffffffff169050919050565b60025481565b60006020528060005260406000206000915054906101000a900473ffffffffffffffffffffffffffffffffffffffff1681565b60008135905061055e816107ec565b92915050565b60008151905061057381610803565b92915050565b6000813590506105888161081a565b92915050565b6000602082840312156105a4576105a36107e7565b5b60006105b284828501610564565b91505092915050565b6000602082840312156105d1576105d06107e7565b5b60006105df84828501610579565b91505092915050565b600080600060608486031215610601576106006107e7565b5b600061060f86828701610579565b93505060206106208682870161054f565b925050604061063186828701610579565b9150509250925092565b61064481610727565b82525050565b61065381610739565b82525050565b61066281610765565b82525050565b600060208201905061067d600083018461063b565b92915050565b6000606082019050610698600083018661063b565b6106a5602083018561063b565b6106b26040830184610659565b949350505050565b60006020820190506106cf600083018461064a565b92915050565b60006020820190506106ea6000830184610659565b92915050565b60006060820190506107056000830186610659565b6107126020830185610659565b61071f604083018461063b565b949350505050565b600061073282610745565b9050919050565b60008115159050919050565b600073ffffffffffffffffffffffffffffffffffffffff82169050919050565b6000819050919050565b600061077a82610765565b91507fffffffffffffffffffffffffffffffffffffffffffffffffffffffffffffffff8214156107ad576107ac6107b8565b5b600182019050919050565b7f4e487b7100000000000000000000000000000000000000000000000000000000600052601160045260246000fd5b600080fd5b6107f581610727565b811461080057600080fd5b50565b61080c81610739565b811461081757600080fd5b50565b61082381610765565b811461082e57600080fd5b5056fea26469706673582212205ff998c8ea8d7e677092e4d75bdd2a4fc6bf889f86979d36706f5ebe4e934f9364736f6c63430008070033",
  "linkReferences": {},
  "deployedLinkReferences": {}
}