{
  "_format": "hh-sol-artifact-1",
  "contractName": "DeFund",
  "sourceName": "contracts/DeFund.sol",
  "abi": [
    {
      "anonymous": false,
      "inputs": [
        {
          "indexed": true,
          "internalType": "address",
          "name": "maker",
          "type": "address"
        },
        {
          "indexed": false,
          "internalType": "uint256",
          "name": "_project",
          "type": "uint256"
        }
      ],
      "name": "AddProject",
      "type": "event"
    },
    {
      "anonymous": false,
      "inputs": [
        {
          "indexed": true,
          "internalType": "address",
          "name": "funder",
          "type": "address"
        },
        {
          "indexed": true,
          "internalType": "address",
          "name": "maker",
          "type": "address"
        },
        {
          "indexed": false,
          "internalType": "uint256",
          "name": "_project",
          "type": "uint256"
        },
        {
          "indexed": false,
          "internalType": "uint256",
          "name": "amount",
          "type": "uint256"
        }
      ],
      "name": "FundedProject",
      "type": "event"
    },
    {
      "inputs": [],
      "name": "add_project",
      "outputs": [],
      "stateMutability": "nonpayable",
      "type": "function"
    },
    {
      "inputs": [
        {
          "internalType": "uint256",
          "name": "project_id",
          "type": "uint256"
        }
      ],
      "name": "getactiveproject",
      "outputs": [
        {
          "internalType": "address",
          "name": "",
          "type": "address"
        }
      ],
      "stateMutability": "view",
      "type": "function"
    },
    {
      "inputs": [
        {
          "internalType": "uint256",
          "name": "project_id",
          "type": "uint256"
        }
      ],
      "name": "getfundedproject",
      "outputs": [
        {
          "internalType": "address",
          "name": "",
          "type": "address"
        }
      ],
      "stateMutability": "view",
      "type": "function"
    },
    {
      "inputs": [
        {
          "internalType": "uint256",
          "name": "Project",
          "type": "uint256"
        },
        {
          "internalType": "address",
          "name": "erc20",
          "type": "address"
        },
        {
          "internalType": "uint256",
          "name": "amount",
          "type": "uint256"
        }
      ],
      "name": "give_funding",
      "outputs": [
        {
          "internalType": "bool",
          "name": "",
          "type": "bool"
        }
      ],
      "stateMutability": "payable",
      "type": "function"
    },
    {
      "inputs": [],
      "name": "project_ID",
      "outputs": [
        {
          "internalType": "uint256",
          "name": "",
          "type": "uint256"
        }
      ],
      "stateMutability": "view",
      "type": "function"
    },
    {
      "inputs": [
        {
          "internalType": "uint256",
          "name": "",
          "type": "uint256"
        }
      ],
      "name": "project_active",
      "outputs": [
        {
          "internalType": "address",
          "name": "",
          "type": "address"
        }
      ],
      "stateMutability": "view",
      "type": "function"
    },
    {
      "inputs": [
        {
          "internalType": "uint256",
          "name": "",
          "type": "uint256"
        }
      ],
      "name": "project_funded",
      "outputs": [
        {
          "internalType": "address",
          "name": "",
          "type": "address"
        }
      ],
      "stateMutability": "view",
      "type": "function"
    }
  ],
  "bytecode": "0x6080604052600060025534801561001557600080fd5b50610857806100256000396000f3fe6080604052600436106100705760003560e01c8063244eb8a61161004e578063244eb8a6146100f957806385ec9b1914610136578063a4e1964014610173578063fb731fc61461019e57610070565b80630d39483f146100755780631875f6cc146100b25780631fb0faf6146100c9575b600080fd5b34801561008157600080fd5b5061009c600480360381019061009791906105b9565b6101db565b6040516100a99190610666565b60405180910390f35b3480156100be57600080fd5b506100c7610217565b005b6100e360048036038101906100de91906105e6565b6102d4565b6040516100f091906106b8565b60405180910390f35b34801561010557600080fd5b50610120600480360381019061011b91906105b9565b6104a4565b60405161012d9190610666565b60405180910390f35b34801561014257600080fd5b5061015d600480360381019061015891906105b9565b6104d7565b60405161016a9190610666565b60405180910390f35b34801561017f57600080fd5b50610188610514565b60405161019591906106d3565b60405180910390f35b3480156101aa57600080fd5b506101c560048036038101906101c091906105b9565b61051a565b6040516101d29190610666565b60405180910390f35b600080600083815260200190815260200160002060009054906101000a900473ffffffffffffffffffffffffffffffffffffffff169050919050565b33600080600254815260200190815260200160002060006101000a81548173ffffffffffffffffffffffffffffffffffffffff021916908373ffffffffffffffffffffffffffffffffffffffff1602179055503373ffffffffffffffffffffffffffffffffffffffff167f4a31f5ac372495eeadf90f1b0d3a4693dbb858e9f2e9730987f6d93338dc06ac6002546040516102b291906106d3565b60405180910390a2600260008154809291906102cd9061075f565b9190505550565b60008060008086815260200190815260200160002060009054906101000a900473ffffffffffffffffffffffffffffffffffffffff16905060008473ffffffffffffffffffffffffffffffffffffffff166323b872dd3384876040518463ffffffff1660e01b815260040161034b93929190610681565b602060405180830381600087803b15801561036557600080fd5b505af1158015610379573d6000803e3d6000fd5b505050506040513d601f19601f8201168201806040525081019061039d919061058c565b9050806103a957600080fd5b60008087815260200190815260200160002060006101000a81549073ffffffffffffffffffffffffffffffffffffffff0219169055816001600088815260200190815260200160002060006101000a81548173ffffffffffffffffffffffffffffffffffffffff021916908373ffffffffffffffffffffffffffffffffffffffff1602179055508173ffffffffffffffffffffffffffffffffffffffff163373ffffffffffffffffffffffffffffffffffffffff167f0b1713f792f525d6722355af366f4041b4d15ab00075ec1c7992a2299f24e847888760405161048f9291906106ee565b60405180910390a36001925050509392505050565b60016020528060005260406000206000915054906101000a900473ffffffffffffffffffffffffffffffffffffffff1681565b60006001600083815260200190815260200160002060009054906101000a900473ffffffffffffffffffffffffffffffffffffffff169050919050565b60025481565b60006020528060005260406000206000915054906101000a900473ffffffffffffffffffffffffffffffffffffffff1681565b60008135905061055c816107dc565b92915050565b600081519050610571816107f3565b92915050565b6000813590506105868161080a565b92915050565b6000602082840312156105a2576105a16107d7565b5b60006105b084828501610562565b91505092915050565b6000602082840312156105cf576105ce6107d7565b5b60006105dd84828501610577565b91505092915050565b6000806000606084860312156105ff576105fe6107d7565b5b600061060d86828701610577565b935050602061061e8682870161054d565b925050604061062f86828701610577565b9150509250925092565b61064281610717565b82525050565b61065181610729565b82525050565b61066081610755565b82525050565b600060208201905061067b6000830184610639565b92915050565b60006060820190506106966000830186610639565b6106a36020830185610639565b6106b06040830184610657565b949350505050565b60006020820190506106cd6000830184610648565b92915050565b60006020820190506106e86000830184610657565b92915050565b60006040820190506107036000830185610657565b6107106020830184610657565b9392505050565b600061072282610735565b9050919050565b60008115159050919050565b600073ffffffffffffffffffffffffffffffffffffffff82169050919050565b6000819050919050565b600061076a82610755565b91507fffffffffffffffffffffffffffffffffffffffffffffffffffffffffffffffff82141561079d5761079c6107a8565b5b600182019050919050565b7f4e487b7100000000000000000000000000000000000000000000000000000000600052601160045260246000fd5b600080fd5b6107e581610717565b81146107f057600080fd5b50565b6107fc81610729565b811461080757600080fd5b50565b61081381610755565b811461081e57600080fd5b5056fea26469706673582212204f76c11ad3076191cc29a9327f8c29fd3a8ce492304e2020786e74e51b7f241164736f6c63430008070033",
  "linkReferences": {},
  "deployedLinkReferences": {}
}